:100000000C9446000C9465000C9465000C946500FB
:100010000C9465000C9465000C9465000C946500CC
:100020000C9465000C9465000C9465000C946500BC
:100030000C9465000C9465000C9465000C946500AC
:100040000C9465000C9465000C9465000C9465009C
:100050000C9465000C9465000C9465000C9465008C
:100060000C9465000C9465000C9465000C9465007C
:100070000C9465000C9465000C9465000C9465006C
:100080000C9465000C9465000C94650011241FBE4F
:10009000CFEFD0E1DEBFCDBF11E0A0E0B1E0EEEBED
:1000A000F9E000E00BBF02C007900D92AE32B1073D
:1000B000D9F721E0AEE2B1E001C01D92A433B2074E
:1000C000E1F70E94D5040C94DD040C9400008FEF3E
:1000D0008ABB81BB08951ABA8FEF81BB089594E063
:1000E00092BB90E19A95F1F700C08BBB80E18A95B5
:1000F000F1F700C012BA089595E092BB90E19A958D
:10010000F1F700C08BBB80E18A95F1F700C012BA0D
:100110000895CF93DF93EC0102C00E947C00899187
:100120008111FBCFDF91CF91089587E082BB80E101
:100130008A95F1F700C089B390E19A95F1F700C074
:1001400012BA089586E082BB80E18A95F1F700C07B
:1001500089B390E19A95F1F700C012BA08950E9410
:100160006B000E94A20087FDFCCF0C94670080E426
:100170000E946F0083EF91E00197F1F700C000004B
:10018000089580E80E946F0083EF91E00197F1F7F6
:1001900000C000000895813019F4862F805C01C0F2
:1001A000862F80680E946F0083EF91E00197F1F73E
:1001B00000C0000008958FE00E946F0083EF91E07F
:1001C0000197F1F700C00000089588E10E946F00D8
:1001D00083EF91E00197F1F700C0000008958CE1F2
:1001E0000E946F0083EF91E00197F1F700C00000DB
:1001F000089580E10E946F0083EF91E00197F1F78D
:1002000000C00000089584E10E946F0083EF91E038
:100210000197F1F700C00000089586E00E946F008A
:1002200083EF91E00197F1F700C00000089584E0AA
:100230000E946F0083EF91E00197F1F700C000008A
:10024000089587E00E946F0083EF91E00197F1F736
:1002500000C00000089585E00E946F0083EF91E0E8
:100260000197F1F700C00000089581E00E946F003F
:1002700083EF91E00197F1F700C00000089581E05D
:100280000E946F0083EF91E00197F1F700C000003A
:10029000089584E30E946F0083EF91E00197F1F7E6
:1002A00000C00000089588E30E946F0083EF91E092
:1002B0000197F1F700C000008EE00E946F0083EF0D
:1002C00091E00197F1F700C0000081E00E946F000B
:1002D00083EF91E00197F1F700C0000086E00E94F3
:1002E0006F0083EF91E00197F1F700C000000895DF
:1002F000109232011092310121E013C028BB3FE37C
:100300008DE093E0315080409040E1F700C0000064
:100310008091310190913201019690933201809346
:100320003101809131019091320103973CF318BA69
:100330000895109232011092310121E013C028BBC0
:100340003FE38DE093E0315080409040E1F700C002
:100350000000809131019091320101969093320119
:1003600080933101809131019091320106973CF3E5
:1003700018BA0895109232011092310121E013C091
:1003800028BB3FE38DE093E0315080409040E1F79F
:1003900000C000008091310190913201019690934C
:1003A000320180933101809131019091320109979E
:1003B0003CF318BA0895109232011092310121E0F5
:1003C00013C028BB3FE38DE093E031508040904064
:1003D000E1F700C000008091310190913201019657
:1003E00090933201809331018091310190913201DB
:1003F0000C973CF318BA0895109232011092310113
:1004000022E013C028BB3FE38DE093E031508040F1
:100410009040E1F700C000008091310190913201DD
:100420000196909332018093310180913101909136
:10043000320103973CF318BA0895109232011092DA
:10044000310122E013C028BB3FE38DE093E031503F
:1004500080409040E1F700C0000080913101909110
:1004600032010196909332018093310180913101E4
:100470009091320106973CF318BA08951092320118
:100480001092310122E013C028BB3FE38DE093E0DE
:10049000315080409040E1F700C000008091310170
:1004A00090913201019690933201809331018091B5
:1004B00031019091320109973CF318BA08951092D6
:1004C00032011092310122E013C028BB3FE38DE0DE
:1004D00093E0315080409040E1F700C000008091EF
:1004E0003101909132010196909332018093310154
:1004F00080913101909132010C973CF318BA089524
:10050000109232011092310124E013C028BB3FE366
:100510008DE093E0315080409040E1F700C0000052
:100520008091310190913201019690933201809334
:100530003101809131019091320103973CF318BA57
:100540000895109232011092310124E013C028BBAB
:100550003FE38DE093E0315080409040E1F700C0F0
:100560000000809131019091320101969093320107
:1005700080933101809131019091320106973CF3D3
:1005800018BA0895109232011092310124E013C07C
:1005900028BB3FE38DE093E0315080409040E1F78D
:1005A00000C000008091310190913201019690933A
:1005B000320180933101809131019091320109978C
:1005C0003CF318BA0895109232011092310124E0E0
:1005D00013C028BB3FE38DE093E031508040904052
:1005E000E1F700C000008091310190913201019645
:1005F00090933201809331018091310190913201C9
:100600000C973CF318BA0895109232011092310100
:1006100028E013C028BB3FE38DE093E031508040D9
:100620009040E1F700C000008091310190913201CB
:100630000196909332018093310180913101909124
:10064000320103973CF318BA0895109232011092C8
:10065000310128E013C028BB3FE38DE093E0315027
:1006600080409040E1F700C00000809131019091FE
:1006700032010196909332018093310180913101D2
:100680009091320106973CF318BA08951092320106
:100690001092310128E013C028BB3FE38DE093E0C6
:1006A000315080409040E1F700C00000809131015E
:1006B00090913201019690933201809331018091A3
:1006C00031019091320109973CF318BA08951092C4
:1006D00032011092310128E013C028BB3FE38DE0C6
:1006E00093E0315080409040E1F700C000008091DD
:1006F0003101909132010196909332018093310142
:1007000080913101909132010C973CF318BA089511
:100710000E9467000E94530160E080E00E94CB00CD
:1007200081E091E00E94890060E081E00E94CB00BE
:100730008EE30C947C000E9467000E94530160E0ED
:1007400080E00E94CB0086E091E00E94890060E09A
:1007500081E00E94CB008EE30C947C000E94670035
:100760000E94530160E080E00E94CB008CE091E0A9
:100770000E94890060E081E00E94CB008EE30C942F
:100780007C000E9467000E94530160E080E00E94AC
:10079000CB0083E191E00E94890060E081E00E944B
:1007A000CB008EE30C947C008FE084BB15BA0E94D2
:1007B00067000E94530160E080E00E94CB0088E166
:1007C00091E00E94890060E081E00E94CB008EE30E
:1007D0000C947C0060913001662381F081E00E94DE
:1007E000CB0080E20E947C006091300181E00E9499
:1007F000CB008091300181508093300183B3807FA2
:10080000803FE1F708950E94350183EC99E001975C
:10081000F1F700C0000060E080E00E94CB0085E2BC
:1008200091E00E9489009FE32DE083E091502040F9
:100830008040E1F700C0000060E080E00E94CB0053
:1008400088E191E00E94890060E081E00E94CB0095
:100850008EE30E947C001092300181E080930001C1
:1008600083B3807F803FE1F70895CF93C82F8091B5
:100870003001813071F08C2F0E947C00809130011A
:10088000E82FF0E0E25DFE4FC0838F5F8093300180
:1008900009C08C2F0E947C00E0913001F0E0E25D05
:1008A000FE4FC083CF9108958EE085BB89EF90E025
:1008B0000197F1F700C000009C9903C00E947801E5
:1008C0000DC09D9903C00E94FC0108C09E9903C001
:1008D0000E94800203C09F9B0E94040383EC99E066
:1008E0000197F1F700C000008DE085BB89EF90E033
:1008F0000197F1F700C000009C9903C00E94990184
:100900000DC09D9903C00E941D0208C09E9903C09E
:100910000E94A10203C09F9B0E94250383EC99E0E3
:100920000197F1F700C000008BE085BB89EF90E0F4
:100930000197F1F700C000009C9903C00E94BA0122
:100940000DC09D9903C00E943E0208C09E9903C03D
:100950000E94C20203C09F9B0E94460383EC99E061
:100960000197F1F700C0000087E085BB89EF90E0B8
:100970000197F1F700C000009C9903C00E94DB01C1
:100980000DC09D9903C00E945F0208C09E9903C0DC
:100990000E94E30203C09F9B0E94670383EC99E0DF
:1009A0000197F1F700C0000008950E94D4038FEF73
:0E09B00087BB18BA0E945404FDCFF894FFCF05
:1009BE0001636F6B6500636964657200636F6666E1
:1009CE006565006D696C6B0043686F6F73652064BD
:0E09DE0072696E6B0052657365742121000012
:00000001FF
